:100000000C9434000C943E000C943E000C943E0082
:100010000C943E000C943E000C943E000C943E0068
:100020000C943E000C943E000C943E000C943E0058
:100030000C943E000C943E000C943E000C943E0048
:100040000C943E000C943E000C943E000C943E0038
:100050000C943E000C943E000C943E000C943E0028
:100060000C943E000C943E0011241FBECFEFD8E04C
:10007000DEBFCDBF0E9440000C9477000C940000BE
:100080000FEF0AB900E00BB90FE316E02BE53FE4F0
:1000900046E65DE66DE777E08FE79FE60BB90E94E5
:1000A0006D001BB90E946D002BB90E946D003BB919
:1000B0000E946D004BB90E946D005BB90E946D00FB
:1000C0006BB90E946D007BB90E946D008BB90E94D4
:1000D0006D009BB90E946D00E1CFB5E0CFEFDFEF7F
:1000E000DA95F1F7CA95D9F7BA95C1F70895F8945A
:0200F000FFCF40
:00000001FF
