:100000000C9434000C943E000C943E000C943E0082
:100010000C943E000C943E000C943E000C943E0068
:100020000C943E000C943E000C943E000C943E0058
:100030000C943E000C943E000C943E000C943E0048
:100040000C944B000C943E000C943E000C943E002B
:100050000C943E000C943E000C943E000C943E0028
:100060000C943E000C943E0011241FBECFEFD8E04C
:10007000DEBFCDBF0E9440000C9452000C940000E3
:100080000FEF04B901E000936E0001E004BD05E04C
:1000900005BD7894FFCF00E005BB05B110E2012754
:0800A00005B91895F894FFCF93
:00000001FF
