:100000000C9434000C943E000C943E000C943E0082
:100010000C943E000C943E000C943E000C943E0068
:100020000C943E000C943E000C943E000C943E0058
:100030000C943E000C943E000C943E000C943E0048
:100040000C943E000C943E000C943E000C943E0038
:100050000C943E000C943E000C943E000C943E0028
:100060000C943E000C943E0011241FBECFEFD8E04C
:10007000DEBFCDBF0E9440000C9457000C940000DE
:1000800048E04EBF4FEF4DBF4FEF4AB946E04BB986
:10009000469508F4486002D0FACFF2CF14E106EE9C
:1000A000000000000A95E1F71A95C9F70895F89441
:0200B000FFCF80
:00000001FF
