:100000000C9434000C943E000C943E000C943E0082
:100010000C943E000C943E000C943E000C943E0068
:100020000C943E000C943E000C943E000C943E0058
:100030000C943E000C943E000C943E000C943E0048
:100040000C943E000C943E000C943E000C943E0038
:100050000C943E000C943E000C943E000C943E0028
:100060000C943E000C943E0011241FBECFEFD8E04C
:10007000DEBFCDBF0E9440000C9454000C940000E1
:100080000FEF0AB914E008E00BB905951A95D9F7F6
:10009000B9F7F9F724EB26BD25E025BDA89BFECFD7
:0C00A00020E025BB25BD0895F894FFCF9B
:00000001FF
